:0400000010EF3AF0D3
:1073E200202020202020202020202020202020209B
:1073F2002020200037004D002C000000000000007B
:1074020000000000000000001400C0A800DEC0A8B8
:107412000001FFFFFF00C0A8006F01F601F6E20EB7
:10742200F66E730EF76E000EF86E00EE60F010EE60
:1074320014F00900F5CFEEFFE550E150FAE1F60E47
:10744200F66E730EF76E000EF86E00EE01F010EE9F
:107452002AF00900F5CFEEFFE550E150FAE100EE27
:1074620074F012EE58F0EE6AE550E150FCE1E250A1
:10747200FAE100EE2BF0230EEE6AE806FDE10001D0
:1074820016EF3BF08B94050EE82EFED700F04F501E
:10749200C96EC7A04FEF3AF051EF3AF04AEF3AF017
:1074A200C9CF3FF04EC0C9FFC7A05AEF3AF05CEF18
:1074B2003AF055EF3AF0C9CF3FF05050080DF35073
:1074C200040FC96EC7A068EF3AF06AEF3AF063EFB3
:1074D2003AF0C9CF3FF051C0C9FFC7A073EF3AF0ED
:1074E20075EF3AF06EEF3AF0C9CF3FF08B8412009D
:1074F2008B94050EE82EFED700F04F50C96EC7A040
:1075020085EF3AF087EF3AF080EF3AF0C9CF3FF0DB
:107512004EC0C9FFC7A090EF3AF092EF3AF08BEF5E
:107522003AF0C9CF3FF05038E842F80BC96EC7A015
:107532009DEF3AF09FEF3AF098EF3AF0C9CF3FF063
:10754200000E566E000E556EBAEF3AF0000EC96E7E
:10755200C7A0AEEF3AF0B0EF3AF0A9EF3AF05550CB
:107562005124D96E56505220DA6EC9CFDFFF554AE8
:10757200562A5350555C54505658D8A0C3EF3AF08F
:10758200C5EF3AF0A7EF3AF08B8412008B94050E08
:10759200E82EFED700F04F50C96EC7A0D3EF3AF0E5
:1075A200D5EF3AF0CEEF3AF0C9CF3FF04EC0C9FF67
:1075B200C7A0DEEF3AF0E0EF3AF0D9EF3AF0C9CFE8
:1075C2003FF05050080DF350040FC96EC7A0ECEF06
:1075D2003AF0EEEF3AF0E7EF3AF0C9CF3FF0000EA3
:1075E200566E000E556E09EF3BF055505124D96E80
:1075F20056505220DA6EDF50C96EC7A003EF3BF03F
:1076020005EF3BF0FEEF3AF0C9CF3FF0554A562A5C
:107612005350555C54505658D8A012EF3BF014EF1B
:107622003BF0F6EF3AF08B841200000E0F01386F38
:10763200C00E926E000E806E000E3B6F000E956EB5
:107642008368400EC76E210EC66EC698C78C000EA8
:10765200396F9368F19E000E3A6F949094949496C9
:107662009488949A8B968B848B90150E586E4B0E41
:10767200576EBE0EE82EFED7572EFCD7582EFAD7DD
:1076820000D08B803F0E806E000E4D6E000E4C6E51
:107692004D5009E1080E4C5CD8A052EF3BF054EF7C
:1076A2003BF056EF3BF075EF3BF04CC057F0010E4C
:1076B200586E572A5FEF3BF0D8905836572E5DEF41
:1076C2003BF05850FF0A836E150E586E4B0E576EE4
:1076D200BE0EE82EFED7572EFCD7582EFAD700D072
:1076E2004C4A4D2A49EF3BF0000E806E290E586E2F
:1076F200960E576E7F0EE82EFED7572EFCD7582EC9
:10770200FAD700F0000E836E000E4D6E000E4C6E26
:107712004D5009E1060E4C5CD8A092EF3BF094EF7D
:107722003BF096EF3BF0B5EF3BF04C500508576E3F
:10773200010E586E572AA0EF3BF0D8905836572EBC
:107742009EEF3BF05850806E150E586E4B0E576EE2
:10775200BE0EE82EFED7572EFCD7582EFAD700D0F1
:107762004C4A4D2A89EF3BF08368000E806E290E49
:10777200586E960E576E7F0EE82EFED7572EFCD708
:10778200582EFAD700F0000E4F6E010E4E6E000E0C
:10779200506E1B0E516E000E526E000E546E040E91
:1077A200536EC7EC3AF0000E4F6E050E4E6E000E91
:1077B200506E1F0E516E000E526E000E546E040E6D
:1077C200536EC7EC3AF0000E4F6E0F0E4E6E000E67
:1077D200506E230E516E000E526E000E546E040E49
:1077E200536EC7EC3AF0000E4F6E000E4E6E010E55
:1077F200506E010E516E43EC3AF0000E4F6E0C0EBD
:107802004E6E010E506E170E516E000E526E000E2D
:10781200546E040E536EC7EC3AF0000E4F6E100E0B
:107822004E6E010E506E290E516E000E526E000EFB
:10783200546E020E536EC7EC3AF0000E4F6E040EF9
:107842004E6E010E506E270E516E000E526E000EDD
:10785200546E020E536EC7EC3AF0000E4F6E010EDC
:107862004E6E010E506E010E516E43EC3AF0050E53
:10787200586E0F0E576EF10EE82EFED7572EFCD71C
:10788200582EFAD700F0000E4F6E010E4E6E010E0A
:10789200506E020E516E43EC3AF0680E576EE40ED3
:1078A200E82EFED7572EFCD700D0000E4F6E030EE7
:1078B2004E6E010E506E460E516E000E526E000E4E
:1078C200546E010E536E79EC3AF01C0E4618D8B481
:1078D2006DEF3CF06FEF3CF077EF3CF04650D8A4F0
:1078E20075EF3CF077EF3CF09DEF3CF0150E576ED4
:1078F200C60EE82EFED7572EFCD700D0000E4F6ED4
:10790200010E4E6E010E506E100E516E43EC3AF0A7
:10791200000E4F6E010E4E6E010E506E010E516E34
:1079220043EC3AF0000E4F6E010E4E6E010E506E99
:10793200020E516E43EC3AF0170E4618D8A4A4EF8B
:107942003CF0A6EF3CF056EF3CF0000E4F6E020EFC
:107952004E6E010E506E460E516E000E526E000EAD
:10796200546E010E536E79EC3AF046A4BBEF3CF034
:10797200BDEF3CF0FCEF3FF0000E4F6E020E4E6E7C
:10798200010E506E1F0E516E43EC3AF0010E466E20
:10799200020E476E030E406E040E416EF1EF3CF094
:1079A200000E4F6E260E4E6E010E506E460E516E3A
:1079B200000E526E000E546E020E536E79EC3AF0C7
:1079C200000E4F6E260E4E6E010E506E400E516E20
:1079D200000E526E000E546E020E536E79EC3AF0A7
:1079E20040504618D8A4F8EF3CF0FAEF3CF0D1EF43
:1079F2003CF041504718D8A401EF3DF003EF3DF0B1
:107A0200D1EF3CF046C03AF047C039F0000E4F6E5D
:107A1200280E4E6E010E506E460E516E000E526EC4
:107A2200000E546E020E536E79EC3AF046C03CF0F2
:107A320047C03BF03A50586E576A39505724336E5C
:107A4200000E5820346E3C50586E576A3B505724F3
:107A5200316E000E5820326E31C04EF032C04FF0FF
:107A6200030E506EA00E516E010E526E33C053F0D3
:107A720034C054F079EC3AF033503124316E345042
:107A82003220326E32503C6E31C03BF03CC046F088
:107A92003BC047F0000E4F6E280E4E6E010E506E28
:107AA200460E516E000E526E000E546E020E536E52
:107AB200C7EC3AF0000E4F6E010E4E6E010E506E84
:107AC200400E516E43EC3AF081CF01F0026AA0C140
:107AD20074F0A1C175F0A2C176F0A3C177F0A7C17D
:107AE200E8FF030AD8A478EF3DF07AEF3DF04EEFBD
:107AF2003EF00C0E33183410D8B482EF3DF084EF10
:107B02003DF09BEF3DF0000EE8CF78F0030EE8CF9A
:107B120079F0A6C17AF0A7C157F0800E572657C058
:107B22007BF0040EE8CF7CF0000E306E090E2F6E53
:107B3200A5EF3FF0A9C157F0A8C158F058505A6EAE
:107B4200596A575059242D6E000E5A202E6EABC121
:107B520057F0AAC158F058505A6E596A57505924D2
:107B62002B6E000E5A202C6E2E5007E1140E2D5C47
:107B7200D8B0BEEF3DF0C0EF3DF0D1EF3DF02B505D
:107B82002D24576E2C502E20586E585009E1150E98
:107B9200575CD8A0CFEF3DF0D1EF3DF0E4EF3DF0E0
:107BA200000EE8CF78F0030EE8CF79F0A6C17AF0A4
:107BB200A7C157F0800E572657C07BF0020EE8CFC0
:107BC2007CF095EF3DF0000EE8CF78F0A6C17AF098
:107BD200A7C17BF0D8902B34576E57C07CF07CC085
:107BE20057F0090E57242F6E306A000E30222FC034
:107BF20057F0FA0E572657C079F0000E4D6E000E60
:107C02004C6E41EF3EF0D8904C34D96E4D34DA6E62
:107C12007D0ED926000EDA224C502D24576E4D507F
:107C22002E20586ED89057365836010E5724E16EE2
:107C3200000E5820E26EE6CF59F0E5CF5AF05AC056
:107C420059F05A6A5950DF6E4C502D24576E4D50E0
:107C52002E20586ED89057365836010E5724D96EBA
:107C6200000E5820DA6ED8904C34E16E4D34E26E3C
:107C72007E0EE126000EE222DFCFE7FF4C4A4D2ABC
:107C82004C502B5C4D502C58D8B04AEF3EF04CEF84
:107C92003EF004EF3EF0A5EF3FF0A7C1E8FF060A71
:107CA200D8A456EF3EF058EF3EF0C2EF3EF00C0E75
:107CB20033183410D8B460EF3EF062EF3EF064EF58
:107CC2003EF084EF3DF0A9C157F0A8C158F05850DA
:107CD2005A6E596A575059242D6E000E5A202E6E34
:107CE2002E5009E1140E2D5CD8A07AEF3EF07CEF05
:107CF2003EF07EEF3EF0D1EF3DF0000E4D6E000EF5
:107D02004C6E4D5009E10C0E4C5CD8A08BEF3EF04E
:107D12008DEF3EF08FEF3EF0A1EF3EF0A00E4C242F
:107D2200D96E010E4D20DA6E740E4C24E16E000EF7
:107D32004D20E26EDFCFE7FF4C4A4D2A82EF3EF044
:107D4200000E306E0C0E2F6EABC157F05750AAC109
:107D520058F058C059F05A6A59C05AF0596A59260F
:107D6200000E5A22D8902D34D96E2E34DA6E010EBE
:107D7200D926000EDA2259C0DEFF5AC0DDFFA5EF78
:107D82003FF0A7C1E8FF100AD8A4CAEF3EF0CCEF3B
:107D92003EF092EF3FF0345009E10B0E335CD8A075
:107DA200D5EF3EF0D7EF3EF084EF3DF021EEACF0A0
:107DB200DF50576E586A0D0E5726000E5822335068
:107DC200571809E134505818D8B4EAEF3EF0ECEFF6
:107DD2003EF0EEEF3EF084EF3DF0A9C157F0A8C1AE
:107DE20058F058505A6E596A575059242D6E000E49
:107DF2005A202E6EABC157F0AAC158F058505A6E95
:107E0200596A575059242B6E000E5A202C6E2E5050
:107E120007E1140E2D5CD8B011EF3FF013EF3FF0E5
:107E2200D1EF3DF02B502D24576E2C502E20586E42
:107E3200585009E1150E575CD8A022EF3FF024EF0D
:107E42003FF026EF3FF0D1EF3DF0000E4D6E000EF9
:107E52004C6E4D5009E10C0E4C5CD8A033EF3FF054
:107E620035EF3FF037EF3FF049EF3FF0A00E4C24E3
:107E7200D96E010E4D20DA6E740E4C24E16E000EA6
:107E82004D20E26EDFCFE7FF4C4A4D2A2AEF3FF04A
:107E9200000E306E0C0E2F6E000E4D6E000E4C6EEC
:107EA20085EF3FF0D8904C34D96E4D34DA6EAD0E7A
:107EB200D926010EDA22DF50576E5750596E586A92
:107EC200D8904C34D96E4D34DA6EAE0ED926010EEE
:107ED200DA22DF505A6E5A505826000E59224C5060
:107EE2002D245B6E4D502E205C6ED8905B365C3636
:107EF200010E5B24D96E000E5C20DA6E58C0DEFFE4
:107F020059C0DDFF4C4A4D2A2B504C5C2C504D5829
:107F1200D8A08EEF3FF090EF3FF053EF3FF0A5EF88
:107F22003FF0000EE8CF78F0030EE8CF79F0A6C15B
:107F32007AF0A7C157F0800E572657C07BF0010E8A
:107F4200E8CF7CF095EF3DF0000E4F6E220E4E6EA4
:107F5200010E506E460E516E000E526E000E546EA1
:107F6200020E536E79EC3AF046C03EF047C03DF047
:107F72003E50586E576A3D505724356E000E5820B9
:107F8200366E35C04EF036C04FF0020E506E740E93
:107F9200516E000E526E2FC053F030C054F0C7EC39
:107FA2003AF02F503524356E30503620366E36502A
:107FB2003E6E35C03DF03EC046F03DC047F0000E7B
:107FC2004F6E240E4E6E010E506E460E516E000E16
:107FD200526E000E546E020E536EC7EC3AF0000E53
:107FE2004F6E010E4E6E010E506E200E516E43EC1E
:0E7FF2003AF056EF3CF056EF3CF000EF00F096
:020000040020DA
:08000000FFFFFFFFFFFFFFFF00
:020000040030CA
:0E000000FF321F3CFFBF85FF0FC00FE00F4017
:00000001FF
