:04000000DAEF00F043
:10000800FACF11F0FBCF12F0E9CF13F0EACF14F0DA
:10001800E1CF15F0E2CF16F0D9CF17F0DACF18F00C
:10002800F3CF19F0F4CF1AF0F6CF1BF0F7CF1CF08E
:10003800F8CF1DF0F5CF1EF0F2A49BD0F294000E7D
:10004800D76E830ED66E000E806E3650010D0001FD
:10005800EB0EF324D96E0001000EF420DA6EDF50A7
:100068000E6E0E50010D370EF324D96E000EF420DB
:10007800DA6EDF50836E366602D0390E836E3650E4
:10008800020AD8B4838E36C00EF0010E0F6E0E2A07
:1000980002D0D8900F360E2EFCD70F50806E362A1D
:1000A800030E366402D0000E366EC4CF0EF0030E77
:1000B8000E160E50106E0F6AC3500F26000E102237
:1000C8000FC02CF010C02DF0000E2DBEFF0E2E6EAE
:1000D8002F6E2C5030262D5031222E5032222F5088
:1000E8003322C282344A352AE80E345C030E35586E
:1000F800D8A026D0000E356E000E346E30C001F048
:1001080031C002F032C003F033C004F0E80E056ECF
:10011800030E066E000E076E000E086EEAEC14F071
:1001280001C0F6F002C0F7F003C0F8F004C0F9F01F
:10013800000E306E000E316E000E326E000E336E01
:10014800000E1F6E82B410D0B80E0001EF5D0B0ECA
:100158000001F059000E0001F159000E0001F2599A
:10016800D8A002D0010E1F6E1FB002D0829401D019
:1001780082841EC0F5FF1DC0F8FF1CC0F7FF1BC01E
:10018800F6FF1AC0F4FF19C0F3FF18C0DAFF17C052
:10019800D9FF16C0E2FF15C0E1FF14C0EAFF13C083
:1001A800E9FF12C0FBFF11C0FAFF1100CAEF15F0FA
:1006000000010000000A00000064000000E8030090
:100610000010270000A086010040420F008096983D
:100620000000E1F50500CA9A3B00803FCDCC3DD7E4
:10063000233C12833AB7D138C62737388635C0D61F
:1006400033CC2B32708930E7DB2EE53C1E42A20D05
:1006500000803F00204100C842007A44401C4650C0
:10066000C34724744997184BBCBE4C6B6E4E0315A0
:100670005079AD60F34971202054454D503A202502
:10068000352E3166430000000001000E0001A86F06
:100690000001970E0001A76F91EF08F00001C4510F
:1006A000250AD8B409D093C0D9FF94C0DAFF00015D
:1006B000C4C0DFFF8EEF08F0000E0001BC6F000E1B
:1006C0000001BB6F000E0001BA6F000E0001B96F90
:1006D000000195C0F6FF000196C0F7FF0800F55035
:1006E000A0EC16F0D8A047D0000E0001BC6F000EA1
:1006F0000001BB6FBBC064F0BCC065F0000E000120
:10070000676F0A0E0001666F61EC16F0000164C0AD
:10071000BBF0000165C0BCF0D00E00019A6FFF0E67
:100720009B6F000195C0F6FF000196C0F7FF08001F
:10073000F55000019C6F9D6B00019A5100019C27B0
:1007400000019B5100019D2300019C510001BB272A
:1007500000019D510001BC230001954B962B000127
:1007600095C0F6FF000196C0F7FF0800F550A0EC19
:1007700016F0D8B0BFD7000195C0F6FF000196C0B3
:10078000F7FF0800F5502E0AD8A43FD00001BA8D1B
:100790000001954B962B000E0001C36F000E000167
:1007A000C26F26D0C2C064F0C3C065F0000E000165
:1007B000676F0A0E0001666F61EC16F0000195C0CC
:1007C000F6FF000196C0F7FF0800F550000164270E
:1007D000000E00016523D00E000164250001C26FE8
:1007E000FF0E000165210001C36F0001954B962BA0
:1007F000000195C0F6FF000196C0F7FF0800F55014
:10080000A0EC16F0D8A00DD0CDD7000E0001C36F1C
:10081000000E0001C26F0001BA8903D00001BA8541
:1008200018D0000195C0F6FF000196C0F7FF000147
:10083000954B962B08000001F5CFC4F00001C45180
:10084000000AD8B4A2EF08F0660AD8B4E7D791EF4F
:1008500008F0070E0001BA15D8B49BD30001BAA95D
:1008600006D0000E0001C36F060E0001C26FA7C0C4
:10087000D9FFA8C0DAFF0001DECFBFF00001DECF54
:10088000C0F00001DDCFC1F0030E0001A727000E6C
:100890000001A8230001C151800A800F07E1000E6A
:1008A0000001C05D03E1000E0001BF5DD8B011D0B2
:1008B000BFC020F0C0C021F0C1C022F07AEC16F019
:1008C00020C0BFF021C0C0F022C0C1F0030E000163
:1008D000B913000E0001BE6F000E0001BD6F7F0E48
:1008E0000001C1150001C0110001BF11D8B4A0D092
:1008F000820E00019A6FFF0E9B6F0001BFC09CF03B
:100900000001C0C09DF00001C1C09EF00001C2C046
:100910009FF0100E06D00001D8909F339E339D3378
:100920009C33E82EF8D700019C5100019A25000164
:10093000BD6F000E00019B210001BE6F0001BD07CD
:10094000D8A0BE07BDC064F0BEC065F0000E0001B7
:10095000676F030E0001666F61EC16F0000164C062
:10096000BDF0000165C0BEF0BDC026F0BEC027F0DE
:10097000000E296E0A0E286EA7EC13F026C0BDF0FB
:1009800027C0BEF00001BE51800AF36E800EF35CFA
:10099000000ED8B4BD5DD8B004D00001BD07D8A00A
:1009A000BE070001BD510008A9EC08F077C0B1F006
:1009B00078C0B2F079C0B3F0B1C068F0B2C069F0ED
:1009C000B3C06AF0BFC06BF0C0C06CF0C1C06DF0C6
:1009D000D6EC11F068C0B1F069C0B2F06AC0B3F0F3
:1009E000B1C020F0B2C021F0B3C022F0000E236EDF
:1009F000800E246E3F0E256EA2EC14F0D8B005D008
:100A00000001BD07D8A0BE0713D0B1C020F0B2C00E
:100A100021F0B3C022F0000E236E200E246E410E92
:100A2000256EA2EC14F0D8A003D00001BD4BBE2B64
:100A30000001C351800AF36E800EF35C0D0ED8B432
:100A4000C25DD8B018D0BFC081F0C0C082F0C1C0B4
:100A500083F00001C251DEEC0CF077C084F078C066
:100A600085F079C086F045EC0EF081C0BFF082C001
:100A7000C0F083C0C1F00001BE51800AF36E800E49
:100A8000F35C0A0ED8B4BD5DD8B029D07F0E00014A
:100A9000C1150001C0110001BF11D8B46CD0BFC096
:100AA0007EF0C0C07FF0C1C080F05CEC10F07EC072
:100AB0009AF07FC09BF080C09CF081C09DF0000147
:100AC0009D519A119B119C11D8A455D00001BE5183
:100AD000800A800F020ED8B4BD5DD8A04CD0B1C042
:100AE00020F0B2C021F0B3C022F0700E236E890E48
:100AF000246E400E256EA2EC14F0D8B003D0000195
:100B0000F70E02D00001F80E0001BD27FF0E000114
:100B1000BE230001BD51A9EC08F077C0B1F078C048
:100B2000B2F079C0B3F0BFC020F0C0C021F0C1C0A6
:100B300022F0B1C023F0B2C024F0B3C025F01AEC0B
:100B400011F020C0A3F021C0A4F022C0A5F023C062
:100B5000A6F0A3C0B4F0A4C0B5F0A5C0B6F0A6C07E
:100B6000B7F0000E0001BF6F000E0001C06F000E55
:100B70000001C16F34D0BFC07EF0C0C07FF0C1C0E3
:100B800080F05CEC10F07EC0B4F07FC0B5F080C0A7
:100B9000B6F081C0B7F0BFC08DF0C0C08EF0C1C04C
:100BA0008FF0B4C028F0B5C029F0B6C02AF0B7C0A5
:100BB0002BF062EC15F028C090F029C091F02AC00B
:100BC00092F026EC16F08DC0BFF08EC0C0F08FC042
:100BD000C1F0000E0001BE6F000E0001BD6F010EDE
:100BE0000001C46F0001C4510A0AD8B41ED000012C
:100BF000C451040D010EF324F66E060EF420F76EB8
:100C00000900F5500001B45D0900F5500001B55927
:100C10000900F5500001B6590900F5500001B75917
:100C2000D8A003D00001C42BDDD70001C4C09AF0C6
:100C300000019B6B9ABF9B070001C25100019A27DC
:100C40000001C35100019B230001BD5100019A27FF
:100C50000001BE5100019B2300019A510001BB5FBE
:100C600000019B510001BC5B0001C351C211D8B40B
:100C700004D00001BB07D8A0BC07030E0001B915C2
:100C800000019A6F000E0001BA1500019B6F000170
:100C90009B519A11D8B40ED009D093C0D9FF94C0FB
:100CA000DAFF200EDF6E0001934B942B0001BB078F
:100CB000D8A0BC070001BC51800AF36E800EF35C23
:100CC000010ED8B4BB5DD8B0E8D7030E0001B9154A
:100CD00000019A6F000E0001BA1500019B6F000120
:100CE0009B519A11D8B456D093C0D9FF94C0DAFF63
:100CF0002D0E4CD0B4C068F0B5C069F0B6C06AF033
:100D0000B7C06BF00001C451040D010EF324F66E60
:100D1000060EF420F76E09000001F5CF6CF0090013
:100D20000001F5CF6DF009000001F5CF6EF00A006B
:100D30000001F5CF6FF03DEC13F068C0A9F069C079
:100D4000AAF06AC0ABF06BC0ACF0A9C020F0AAC09A
:100D500021F0ABC022F0ACC023F00A0E246E000ECE
:100D6000256E000E266E000E276E97EC15F020C043
:100D7000A9F021C0AAF022C0ABF023C0ACF0000162
:100D8000A951300F93C0D9FF94C0DAFFDF6E000184
:100D9000934B942B0001C4070001C429D8B40ED092
:100DA000A9D793C0D9FF94C0DAFF300EDF6E0001DF
:100DB000934B942B0001BD07D8A0BE070001BE5184
:100DC000800AF36E800EF35C010ED8B4BD5DD8B01E
:100DD000E8D70001C351800A800F090ED8B4C25D64
:100DE000D8A004D0080E0001C46F02D0C2C0C4F065
:100DF0000001C4510001C25F000E0001C4BFFF0E1C
:100E00000001C35B0001C451D8B409D093C0D9FF1D
:100E100094C0DAFF2E0EDF6E0001934B942B00017D
:100E2000C451A9EC08F077C0A0F078C0A1F079C057
:100E3000A2F0BFC06BF0C0C06CF0C1C06DF0A0C02C
:100E400068F0A1C069F0A2C06AF0D6EC11F068C0E9
:100E50007EF069C07FF06AC080F05CEC10F07EC06C
:100E6000B4F07FC0B5F080C0B6F081C0B7F077D0E5
:100E7000B4C068F0B5C069F0B6C06AF0B7C06BF036
:100E80000001C451040D010EF324F66E060EF42089
:100E9000F76E09000001F5CF6CF009000001F5CFF5
:100EA0006DF009000001F5CF6EF00A000001F5CFEA
:100EB0006FF03DEC13F068C0ADF069C0AEF06AC0F1
:100EC000AFF06BC0B0F0ADC020F0AEC021F0AFC04D
:100ED00022F0B0C023F00A0E246E000E256E000E24
:100EE000266E000E276E97EC15F020C0ADF021C0E5
:100EF000AEF022C0AFF023C0B0F00001AD51300F12
:100F000093C0D9FF94C0DAFFDF6E0001934B942B9E
:100F1000B4C020F0B5C021F0B6C022F0B7C023F0B5
:100F20000001C451040D010EF324F66E060EF420E8
:100F3000F76E0900F5CF24F00900F5CF25F0090080
:100F4000F5CF26F00A00F5CF27F097EC15F020C07A
:100F5000B4F021C0B5F022C0B6F023C0B7F0000154
:100F6000C4070001C429D8B40ED082D793C0D9FFDA
:100F700094C0DAFF300EDF6E0001934B942B00011A
:100F8000C207D8A0C3070001C351C211D8B4C9D049
:100F9000EDD70001C351C211D8A40AD00001B75146
:100FA000B411B511B611D8A403D00001C24BC32BA4
:100FB000800E0001C4BF7F0E00019A6F0001C25174
:100FC0000001C45D0001C351800A00019A59D8B0E4
:100FD00003D0C2C0C4F01AD00001C351800A00017E
:100FE0009A6F0001C4510001C25D800E0001C4BFB0
:100FF0007F0E00019A59D8B009D00001C4510001F8
:10100000C26F0001C36B0001C2BFC3070001BC5126
:10101000BB11D8B413D0030E0001B91500019A6FAB
:10102000000E0001BA1500019B6F00019B519A113F
:10103000D8B404D00001BB07D8A0BC070001BAADEA
:101040001FD00001C351800A00019A6F0001BB51FB
:101050000001C25D0001BC51800A00019A59D8B05C
:1010600009D00001C2510001BB5F0001C351000162
:10107000BC5B06D0000E0001BC6F000E0001BB6F10
:10108000800E0001C4BF7F0E00019A6F0001BB51AA
:101090000001C45D0001BC51800A00019A59D8B01A
:1010A0000BD00001C4510001BB5F000E0001C4BFA2
:1010B000FF0E0001BC5B06D0000E0001BC6F000EED
:1010C0000001BB6F0001BC51BB11D8B412D093C05A
:1010D000D9FF94C0DAFF200EDF6E0001934B942BF2
:1010E0000001BB07D8A0BC070001BC51BB11D8A4AC
:1010F000EED7030E0001B91500019A6F000E000132
:10110000BA1500019B6F00019B519A11D8B409D008
:1011100093C0D9FF94C0DAFF2D0EDF6E0001934B10
:10112000942B000195C0F6FF000196C0F7FF000167
:10113000954B962B08000001F5CFC4F00001C46761
:101140004EEF03F093C0D9FF94C0DAFF000EDF6EBC
:10115000120000017D6F00017DAF36D100017D6D71
:1011600000017D51800A120FD8A0ADD0000E000101
:10117000676F030E0001666F000E296E0A0E286E5F
:10118000000E236E640E226E00017D51206E216AD6
:1011900020BE21065AEC14F020C026F021C027F012
:1011A000A7EC13F0090E26240001646F000E27201F
:1011B0000001656F61EC16F0290E00016425F66EE2
:1011C000060E00016521F76E09000001F5CF6BF0F6
:1011D00009000001F5CF6CF00A000001F5CF6DF0B9
:1011E000000E296E640E286E00017D51266E276A5E
:1011F00026BE2706A7EC13F0120E26240001646F0A
:10120000000E27200001656F000E0001676F030EBE
:101210000001666F61EC16F0290E00016425F66E80
:10122000060E00016521F76E09000001F5CF68F098
:1012300009000001F5CF69F00A000001F5CF6AF05E
:10124000D6EC11F068C07AF069C07BF06AC07CF01F
:101250007AC068F07BC069F07CC06AF0000E0001C3
:10126000676F030E0001666F000E236E0A0E226E7A
:1012700000017D51206E216A20BE21065AEC14F037
:1012800020C064F021C065F061EC16F0290E000169
:101290006425F66E060E00016521F76E0900000157
:1012A000F5CF6BF009000001F5CF6CF00A000001EA
:1012B000F5CF6DF0D6EC11F068C077F069C078F02A
:1012C0006AC079F0120000017D51800A750FD8A024
:1012D00065D0000E296E0A0E286E00017D51266E23
:1012E000276A26BE2706A7EC13F0090E2624000164
:1012F000646F000E27200001656F000E0001676F0C
:10130000030E0001666F61EC16F0290E00016425E2
:10131000F66E060E00016521F76E09000001F5CF9B
:1013200068F009000001F5CF69F00A000001F5CF6F
:101330006AF0000E0001676F030E0001666F000E79
:10134000236E0A0E226E00017D51206E216A20BE9E
:1013500021065AEC14F020C064F021C065F061EC65
:1013600016F0290E00016425F66E060E00016521B7
:10137000F76E09000001F5CF6BF009000001F5CF11
:101380006CF00A000001F5CF6DF0D6EC11F068C0EA
:1013900077F069C078F06AC079F0120000017D51E1
:1013A000030D290EF324F66E060EF420F76E0900E5
:1013B0000001F5CF77F009000001F5CF78F00A00C1
:1013C0000001F5CF79F0120000017D51800A120F63
:1013D000D8A0ADD0000E0001676F030E0001666F4C
:1013E000000E296E0A0E286E000E236E640E226E09
:1013F00000017D51206E216A20BE21065AEC14F0B6
:1014000020C026F021C027F0A7EC13F0090E2624F7
:101410000001646F000E27200001656F61EC16F07B
:10142000500E00016425F66E060E00016521F76E70
:1014300009000001F5CF6BF009000001F5CF6CF059
:101440000A000001F5CF6DF0000E296E640E286EC3
:1014500000017D51266E276A26BE2706A7EC13F0F1
:10146000120E26240001646F000E27200001656F14
:10147000000E0001676F030E0001666F61EC16F04D
:10148000500E00016425F66E060E00016521F76E10
:1014900009000001F5CF68F009000001F5CF69F0FF
:1014A0000A000001F5CF6AF0D6EC11F068C07AF0BE
:1014B00069C07BF06AC07CF07AC068F07BC069F0DC
:1014C0007CC06AF0000E0001676F030E0001666FBA
:1014D000000E236E0A0E226E00017D51206E216ADD
:1014E00020BE21065AEC14F020C064F021C065F043
:1014F00061EC16F0500E00016425F66E060E000138
:101500006521F76E09000001F5CF6BF009000001BD
:10151000F5CF6CF00A000001F5CF6DF0D6EC11F0BC
:1015200068C077F069C078F06AC079F012000001F5
:101530007D51800A750FD8A065D0000E296E0A0E65
:10154000286E00017D51266E276A26BE2706A7EC6D
:1015500013F0090E26240001646F000E27200001FD
:10156000656F000E0001676F030E0001666F61EC8E
:1015700016F0500E00016425F66E060E000165217E
:10158000F76E09000001F5CF68F009000001F5CF02
:1015900069F00A000001F5CF6AF0000E0001676FE4
:1015A000030E0001666F000E236E0A0E226E00010C
:1015B0007D51206E216A20BE21065AEC14F020C015
:1015C00064F021C065F061EC16F0500E0001642556
:1015D000F66E060E00016521F76E09000001F5CFD9
:1015E0006BF009000001F5CF6CF00A000001F5CFA7
:1015F0006DF0D6EC11F068C077F069C078F06AC081
:1016000079F0120000017D51030D500EF324F66EA7
:10161000060EF420F76E09000001F5CF77F00900FF
:101620000001F5CF78F00A000001F5CF79F0120043
:10163000000E0F01386F000E0F01396F000E0F0101
:101640003A6F000E0F013B6F020E0F013C6FF00E60
:10165000926EC00E936EFB0E946E000E956E7F0E12
:10166000966E000E806E000E836EA10EC06E000E90
:10167000C16E1B0EC26E000ED76E830ED66EC30EE9
:10168000D56EF28AF184F28E2BEC15F0C282F6C090
:1016900020F0F7C021F0F8C022F0F9C023F0500E7E
:1016A000246EC30E256E000E266E000E276EFBEC18
:1016B00015F020C068F021C069F022C06AF023C094
:1016C0006BF0FF0E00016C6F030E00016D6F000EDA
:1016D00000016E6F000E00016F6F3DEC13F068C0EB
:1016E000EFF069C0F0F06AC0F1F06BC0F2F0000EEC
:1016F00000016B6FFA0E00016C6F430E00016D6FFD
:10170000F6C028F0F7C029F0F8C02AF0F9C02BF095
:1017100062EC15F028C068F029C069F02AC06AF0B0
:10172000D6EC11F068C077F069C078F06AC079F043
:10173000C00E00017A6F7F0E00017B6F440E000126
:101740007C6F91EC12F077C0F3F078C0F4F079C0C0
:10175000F5F0EFC068F0F0C069F0F1C06AF0F2C0D7
:101760006BF0E80E00016C6F030E00016D6F000E50
:1017700000016E6F000E00016F6F3DEC13F068C04A
:10178000CAF069C0CBF06AC0CCF06BC0CDF00001EC
:10179000CA510001EE6F0001EEC064F00001656BFC
:1017A000030E0001676FE80E0001666F61EC16F032
:1017B000000164C0CAF0000165C0CBF0000E00015A
:1017C000CBBFFF0ECC6FCD6F0001CA1FCB1FCC1F4C
:1017D000CD1FCA2B000ECB23CC23CD230001EF510C
:1017E0000001CA250001686F0001F0510001CB2102
:1017F0000001696F0001F1510001CC2100016A6F05
:101800000001F2510001CD2100016B6F640E000157
:101810006C6F000E00016D6F000E00016E6F000E08
:1018200000016F6F3DEC13F068C0CEF069C0CFF0DF
:101830006AC0D0F06BC0D1F00001CE510001ED6F55
:101840000001ED51640DF3CFCAF0F4CFCBF0000EE0
:101850000001CBBFFF0ECC6FCD6F0001EEC064F076
:101860000001656B030E0001676FE80E0001666FF3
:1018700061EC16F0000164C0CEF0000165C0CFF04D
:10188000000E0001CFBFFF0ED06FD16F0001CA5113
:101890000001CE250001D26F0001CB510001CF2104
:1018A0000001D36F0001CC510001D0210001D46FA1
:1018B0000001CD510001D1210001D56F0001D21FDF
:1018C000D31FD41FD51FD22B000ED323D423D5234F
:1018D0000001EF510001D2250001686F0001F051B5
:1018E0000001D3210001696F0001F1510001D421F1
:1018F00000016A6F0001F2510001D52100016B6FF8
:101900000A0E00016C6F000E00016D6F000E0001E9
:101910006E6F000E00016F6F3DEC13F068C0D6F0E3
:1019200069C0D7F06AC0D8F06BC0D9F00001D651B9
:101930000001EC6F0001EC510A0DF3CFCAF0000179
:10194000ED51640DF3CFCBF00001EEC064F0000167
:10195000656B030E0001676FE80E0001666F61ECB6
:1019600016F0000164510001CB250001CA250008D2
:101970000001EF250001EB6F000EC6EC16F0000130
:10198000000E0001946F0001DA0E0001936F060E45
:101990000001966F770E0001956FF3C097F0F4C0C9
:1019A00098F0F5C099F044EC03F00001000E236EAE
:1019B0000001DA0E226E8DEC16F068D60001806F01
:1019C0006D0E00018065BED0000E0001676F030E32
:1019D0000001666F000E296E0A0E286E000E236E3F
:1019E000640E226E000180C020F0216A5AEC14F0CF
:1019F00020C026F021C027F0A7EC13F0090E262402
:101A00000001646F000E27200001656F61EC16F085
:101A1000290E00016425F66E060E00016521F76EA1
:101A200009000001F5CF6BF009000001F5CF6CF063
:101A30000A000001F5CF6DF0000E296E640E286ECD
:101A4000000180C026F0276AA7EC13F0120E2624AE
:101A50000001646F000E27200001656F000E000179
:101A6000676F030E0001666F61EC16F0290E00012E
:101A70006425F66E060E00016521F76E090000016F
:101A8000F5CF68F009000001F5CF69F00A00000108
:101A9000F5CF6AF0D6EC11F068C07DF069C07EF039
:101AA0006AC07FF0000E0001676F030E0001666FD1
:101AB000000E236E0A0E226E000180C020F0216A03
:101AC0005AEC14F020C064F021C065F061EC16F00F
:101AD000290E00016425F66E060E00016521F76EE1
:101AE00009000001F5CF6BF009000001F5CF6CF0A3
:101AF0000A000001F5CF6DF07DC068F07EC069F08E
:101B00007FC06AF0D6EC11F068C07AF069C07BF053
:101B10006AC07CF07AC068F07BC069F07CC06AF073
:101B2000000E00016B6F000E00016C6F3F0E000194
:101B30006D6FD6EC11F068C077F069C078F06AC0BC
:101B400079F012000A0E0001806578D0000E0001C5
:101B5000676F030E0001666F000E236E0A0E226E81
:101B6000000180C020F0216A5AEC14F020C064F01B
:101B700021C065F061EC16F0290E00016425F66EB7
:101B8000060E00016521F76E09000001F5CF6BF02C
:101B900009000001F5CF6CF00A000001F5CF6DF0EF
:101BA000000E296E0A0E286E000180C026F0276AFA
:101BB000A7EC13F0090E26240001646F000E272005
:101BC0000001656F000E0001676F030E0001666F74
:101BD00061EC16F0290E00016425F66E060E000178
:101BE0006521F76E09000001F5CF68F009000001DA
:101BF000F5CF69F00A000001F5CF6AF0D6EC11F0DC
:101C000068C07DF069C07EF06AC07FF07DC068F07A
:101C10007EC069F07FC06AF0000E00016B6F000E9D
:101C200000016C6F3F0E00016D6FD6EC11F068C0C3
:101C300077F069C078F06AC079F012000001805135
:101C4000030D290EF324F66E060EF420F76E09003C
:101C50000001F5CF68F009000001F5CF69F00A0036
:101C60000001F5CF6AF0000E00016B6F000E00015D
:101C70006C6F3F0E00016D6FD6EC11F068C077F00D
:101C800069C078F06AC079F01200000183C087F063
:101C90000001886B896B000182350001873701E301
:101CA00088810001875100018C6F000186C087F098
:101CB0000001886B896B000185350001873701E3DE
:101CC00088810001875100018B6F00018C51D8B4CD
:101CD00012D000018B5100018C5DD8B013D00001EF
:101CE0008C51000800018B250001876F190E00013F
:101CF000875DD8A007D084C081F085C082F086C0FF
:101D000083F0120000018B51D8B412D000018C5125
:101D100000018B5DD8B013D000018B510008000189
:101D20008C250001876F190E0001875DD8A007D0B0
:101D300081C081F082C082F083C083F01200060E61
:101D400000018A6F000183AF02D000018A8F000179
:101D500086AF02D000018A8D0001828FFF0E000144
:101D60008117FF0E00018217000E0001831700018A
:101D7000858FFF0E00018417FF0E00018517000EEE
:101D80000001861700018B5100018C5DD8B02AD06C
:101D90000001D890000184370001853700018637A3
:101DA00000018B0700018B5100018C19D8B414D0AD
:101DB00000018A078AC087F0070E00018717D8B490
:101DC0000BD0E6D70001D8900001833300018233A5
:101DD0000001813300018C2B00018B5100018C63C9
:101DE000F1D72FD000018C5100018B5DD8B029D0E4
:101DF0000001D8900001813700018237000183374C
:101E000000018C0700018B5100018C19D8B414D04B
:101E100000018A078AC087F0070E00018717D8B42F
:101E20000BD0E6D70001D89000018633000185333E
:101E30000001843300018B2B00018B5100018C6366
:101E4000F1D700018AAF12D0FF0E0001811BFF0EF7
:101E50000001821BFF0E0001831B010E0001812780
:101E6000000E00018223000E0001832300018AADD1
:101E700012D0FF0E0001841BFF0E0001851BFF0E18
:101E80000001861B010E00018427000E000185233E
:101E9000000E00018623000E00018A6F00018151AF
:101EA0000001842700018251000185230001835134
:101EB00000018623000186AF15D0FF0E0001841BB0
:101EC000FF0E0001851BFF0E0001861B010E0001A5
:101ED0008427000E00018523000E00018623010ED9
:101EE00000018A6F84C020F085C021F086C022F0F6
:101EF0008CC023F08AC024F006EC14F020C081F0DE
:101F000021C082F022C083F0120020C026F021C040
:101F100027F022C028F023C029F0180E05D0D89051
:101F20002932283227322632E82EF9D726500001EE
:101F3000656F0001656709D0000E206E000E216EEE
:101F4000000E226E000E236E120023C026F024C065
:101F500027F025C028F026C029F0180E05D0D8900B
:101F60002932283227322632E82EF9D726500001AE
:101F7000646F0001646709D0000E206E000E216EB0
:101F8000000E226E000E236E1200228EFF0E20160F
:101F9000FF0E2116FF0E2216000E2316258EFF0EB1
:101FA0002316FF0E2416FF0E2516000E2616000E11
:101FB0000001606F000E0001616F000E0001626F92
:101FC000000E0001636F7F0E0001655F0001645128
:101FD000A00F0001655F200E0001646F0001D89022
:101FE000000160370001613700016237000163378B
:101FF0002350205C24502158255022582650235825
:10200000D8A00AD02350205E2450215A2550225AAD
:102010002650235A00016081D8902036213622367E
:1020200023360001642FDAD7000165AF20D000010C
:102030006551800A266EE10E800A265CD8B009D070
:10204000000E206E000E216E000E226E000E236E1A
:1020500012000001D89000016333000162330001D7
:102060006133000160330001653FF3D71CD01F0EC0
:102070000001656515D0000E206E000E216E000E69
:10208000226E000E236E12000001D890000160370E
:102090000001613700016237000163370001650705
:1020A00000016567F1D760C020F061C021F062C017
:1020B00022F063C023F01200000180C082F0000112
:1020C000836B846B00017F350001823701E38381DC
:1020D0000001825100018C6F00018C670DD0000E51
:1020E00000017E6F000E00017F6F000E0001806F07
:1020F000000E0001816F1200170E0001826F0001B7
:102100007EC083F000017FC084F0000180C085F0B4
:10211000000182290001866F05D00001D890853327
:10212000843383330001862FF8D7000183510001E7
:10213000876F00017F8FFF0E00017E17FF0E0001E9
:102140007F17000E0001801700017E510001886F8B
:1021500000017F510001896F0001805100018A6FE9
:1021600000018B6B8E0E00018C5F00018CAF26D0BE
:1021700000018C51800A0001826FF10E800A00017B
:10218000825DD8B00DD0000E00017E6F000E000100
:102190007F6F000E0001806F000E0001816F120042
:1021A0000001D89000018B3300018A33000189338C
:1021B0000001883300018C3FF3D720D0170E0001B7
:1021C0008C6519D0000E00017E6F000E00017F6F3C
:1021D000000E0001806F000E0001816F12000001EF
:1021E000D890000188370001893700018A37000143
:1021F0008B3700018C0700018C67F1D700018751F4
:10220000D8B40FD000018B1F00018A1F0001891F65
:102210000001886D000E0001892300018A2300015E
:102220008B2388C07EF089C07FF08AC080F08BC08D
:1022300081F0120022C026F0276A286A213426364F
:1022400001E3278026500001656F0001656709D012
:10225000000E206E000E216E000E226E000E236E08
:10226000120025C026F0276A286A2434263601E3A6
:10227000278026500001646F0001646709D0000EBA
:10228000206E000E216E000E226E000E236E1200D4
:10229000218EFF0E2016FF0E2116000E2216248E10
:1022A000FF0E2316FF0E2416000E2516000E000149
:1022B000606F000E0001616F000E0001626F000E82
:1022C0000001636F7F0E0001655F00016451980F8C
:1022D0000001655F180E0001646F0001D8900001D5
:1022E0006037000161370001623700016337235016
:1022F000205C2450215825502258D8A008D02350C3
:10230000205E2450215A2550225A00016081D89025
:102310002036213622360001642FDFD7000165AF59
:1023200020D000016551800A266EE90E800A265CE5
:10233000D8B009D0000E206E000E216E000E226E65
:10234000000E236E12000001D890000163330001DB
:10235000623300016133000160330001653FF3D750
:102360001CD0170E0001656515D0000E206E000E02
:10237000216E000E226E000E236E12000001D89016
:1023800000016037000161370001623700016337E7
:102390000001650700016567F1D760C020F061C0EA
:1023A00021F062C022F063C023F0120000016AC075
:1023B0006EF000016F6B706B0001693500016E37C4
:1023C00001E36F8100016E510001716F00017167BF
:1023D0000AD0000E0001686F000E0001696F000E48
:1023E00000016A6F120000016DC06EF000016F6B9A
:1023F000706B00016C3500016E3701E36F810001E5
:102400006E510001766F000176670AD0000E000160
:10241000686F000E0001696F000E00016A6F120004
:10242000000176517B0F000171276AC076F0000130
:102430006D510001761B800E000176170001698F37
:1024400000016C8FFF0E00016B17FF0E00016C176F
:10245000000E00016D17000E0001726F000E0001EA
:10246000736F000E0001746F070E0001756F00019D
:1024700068A10CD000016B510001722700016C5162
:102480000001732300016D51000174230001D890F5
:1024900000016A3300016933000168330001D890FC
:1024A00000016B3700016C3700016D370001752F9B
:1024B000DED7090E0001756F000168A10CD0000184
:1024C0006B510001722700016C5100017323000160
:1024D0006D51000174230001D89000016A3300019E
:1024E0006933000168330001D890000174330001A2
:1024F0007333000172330001752FDED772C020F0F4
:1025000073C021F074C022F071C023F076C024F0B3
:1025100006EC14F020C068F021C069F022C06AF017
:102520001200000179C07DF000017E6B7F6B00011D
:10253000783500017D3701E37E8100017D51000186
:10254000846F000184670AD0000E0001776F000ECF
:102550000001786F000E0001796F120000017CC04D
:102560007DF000017E6B7F6B00017B3500017D37C4
:1025700001E37E8100017D510001856F00018567C7
:102580000AD0000E0001776F000E0001786F000E78
:102590000001796F1200000E0001816F000E000132
:1025A000826F000E0001836F00018551890F0001C9
:1025B000845F79C085F000017C510001851B800E8D
:1025C000000185170001788FFF0E00017717FF0EBD
:1025D00000017817000E0001791700017B8FFF0EB4
:1025E00000017A17FF0E00017B17000E00017C1717
:1025F000180E0001806F0001D890000181370001A2
:1026000082370001833700017A510001775D0001B4
:102610007B510001785900017C5100017959D8A003
:102620000ED000017A510001775F00017B5100015B
:10263000785B00017C510001795B00018181000120
:10264000D890000177370001783700017937000111
:10265000802FD1D781C020F082C021F083C022F02A
:1026600084C023F085C024F006EC14F020C077F07D
:1026700021C078F022C079F01200000E0001706FC6
:10268000000E0001716F000E0001726F000E00015C
:10269000736F00016F516C116D116E11D8B44ED073
:1026A000010E0001746F0CD00001D89000016C374E
:1026B00000016D3700016E3700016F370001742B88
:1026C00000016FAFF1D70001D89000017037000111
:1026D0007137000172370001733700016C5100013E
:1026E000685D00016D510001695900016E510001E2
:1026F0006A5900016F5100016B59D8A012D0000136
:102700006C510001685F00016D510001695B0001BF
:102710006E5100016A5B00016F5100016B5B0001AB
:1027200070810001D89000016F3300016E33000109
:102730006D3300016C330001742FC5D770C068F091
:1027400071C069F072C06AF073C06BF01200000EC5
:102750000001616F2950800AF36E800EF35C000E59
:10276000D8B4285CD8B007D0286C291ED8B0292A44
:10277000010E0001616F2750800AF36E800EF35C3A
:10278000000ED8B4265CD8B007D0266C271ED8B06F
:10279000272A010E0001611B000E0001636F000E6D
:1027A0000001626F29502810D8B421D0010E000119
:1027B000606F05D0D890283629360001602B29AEED
:1027C000F9D70001D890623763372850265C29502A
:1027D0002758D8A006D02850265E2950275A000135
:1027E0006281D890293228320001602FEAD7000197
:1027F0006151D8B406D00001626D0001631FD8B0EA
:10280000632B62C026F063C027F012002350D8B4B7
:1028100005D0205021102210D8A40CD0000E206E1C
:10282000000E216E000E226E1200232AD890223252
:1028300021322032000E2014256E000E2114266E47
:10284000FE0E2214276E255026102710D8B40CD067
:10285000ECD7232A010E2026000E2122000E222270
:10286000D890223221322032000E2014256E000E24
:102870002114266EFF0E2214276E255026102710D5
:10288000D8B406D0E6D72306D89020362136223693
:1028900021AEF9D723A0219ED890233223502212B3
:1028A0002450D8A4228E20C020F021C021F022C0C4
:1028B00022F01200000E256E2150800AF36E800E69
:1028C000F35C000ED8B4205CD8B006D0206C211E7A
:1028D000D8B0212A010E256E2350800AF36E800E97
:1028E000F35C000ED8B4225CD8B004D0226C231E56
:1028F000D8B0232A23502210D8B418D0010E246E49
:1029000004D0D89022362336242A23AEFAD7225078
:10291000205C23502158D8A004D02250205E2350A0
:10292000215AD89023322232242EF1D72550D8B400
:1029300004D0206C211ED8B0212A20C020F021C054
:1029400021F0120022AE16D020C026F021C027F0C0
:1029500022C028F0261E271E281E262A000E272207
:102960002822000E2624206E000E2720216E800EC5
:102970002820226E25AE16D023C026F024C027F0D2
:1029800025C028F0261E271E281E262A000E2722D4
:102990002822000E2624236E000E2720246E800E8F
:1029A0002820256E000E201A000E211A800E221AF1
:1029B000000E231A000E241A800E251A2350205CC4
:1029C0002450215825502258D8B002D0D890120057
:1029D000D8801200000E096E000E0A6E000E0B6EFB
:1029E000000E0C6E0850051006100710D8B42AD03F
:1029F000010E0D6E06D0D89005360636073608361D
:102A00000D2A08AEF8D7D89009360A360B360C36A0
:102A10000550015C065002580750035808500458EE
:102A2000D8A009D00550015E0650025A0750035A3B
:102A30000850045A0980D89008320732063205320D
:102A40000D2EE1D709C001F00AC002F00BC003F05F
:102A50000CC004F01200030E246E8198819A270E98
:102A6000236EF50EE82EFED7232EFCD700F0815002
:102A7000F00B2424816E818A819A0D0E236EFC0E48
:102A8000E82EFED7232EFCD7818A819A850EE82E68
:102A9000FED700F0818A819A850EE82EFED700F0DD
:102AA0008150F00B020F816E818A819A280E44ECCE
:102AB00016F00C0E44EC16F0B0EC16F0060E44ECDA
:102AC00016F012008E0E0001646F07D0D8902B32E2
:102AD0002A32293228320001642B000E281400010A
:102AE000606F000E29140001616F000E2A140001AE
:102AF000626FFF0E2B140001636F000163516011C0
:102B000061116211D8A4E2D728C020F029C021F0B9
:102B10002AC022F064C023F0000E246E06EC14F0EC
:102B200020C028F021C029F022C02AF0120027502E
:102B3000241025102610D8B424D0010E286E06D0FB
:102B4000D8902436253626362736282A27AEF8D7B9
:102B50002450205C255021582650225827502358B5
:102B6000D8A008D02450205E2550215A2650225A41
:102B70002750235AD8902732263225322432282E45
:102B8000E7D720C020F021C021F022C022F023C0CE
:102B900023F0120000EEEBF00F0EEE6AE806FDE106
:102BA00000EE2CF00B0EEE6AE806FDE17A0EF66EF2
:102BB0002D0EF76E000EF86E00EEDAF010EE11F04A
:102BC0000900F5CFEEFFE550E150FAE19A0EF66EFE
:102BD0002D0EF76E000EF86E00EE37F010EE0AF0D4
:102BE0000900F5CFEEFFE550E150FAE1000EF86E76
:102BF000000118EF0BF0000E286E000E296E000E7B
:102C00002A6E000E2B6E20A008D0245028262550B6
:102C1000292226502A2227502B22D89024362536C6
:102C200026362736D89023322232213220322350C2
:102C3000201021102210D8A4E6D728C020F029C0E7
:102C400021F02AC022F02BC023F01200000E000158
:102C5000901B000E0001911B800E0001921B8DC085
:102C600081F08EC082F08FC083F090C084F091C05C
:102C700085F092C086F045EC0EF081C08DF082C0E8
:102C80008EF083C08FF01200216E1A0EE82EFED750
:102C900000D021C020F0203A0F0E20160F0E201673
:102CA0008150F00B2024816E818A819A21C020F00E
:102CB0000F0E20168150F00B2024816E818A819A9C
:102CC00012000001645100016603F3CF2AF0F4CF33
:102CD0002BF00001645100016703F3502B26000123
:102CE000655100016603F3502B262AC064F02BC007
:102CF00065F012007F0E221421102010D8B406D0E7
:102D0000000E201A000E211A800E221A20C020F078
:102D100021C021F022C022F01200818809D022C0F7
:102D2000D9FF23C0DAFFDF5044EC16F0224A232AF1
:102D300022C0D9FF23C0DAFFDF50D8B41200EFD78A
:102D4000226E000E216E3A0E225CD8B005D02F0EF6
:102D5000226402D0010E216E21C020F0203012002A
:102D60008198010E44EC16F0060E226E300EE82E0D
:102D7000FED7222EFCD700D01200202020202020B9
:102D8000202020202020202020200000226E81985A
:102D90002250800F44EC16F012003F065B4F666D28
:042DA0007D077F6FBD
:020000040020DA
:08000000FFFFFFFFFFFFFFFF00
:020000040030CA
:0E000000FF221F3FFFBF85FF0FC00FE00F4024
:00000001FF
